:100000000C942A000C940D010C9447000C944700AA
:100010000C9447000C9447000C9447000C94470044
:100020000C9447000C9497010C9447000C944900E1
:100030000C9472000C9447000C9447000C944700F9
:100040000C9447000C9447000C9447000C94470014
:100050000C94470011241FBECFE5D4E0DEBFCDBF16
:1000600010E0A0E6B0E0ECE5F5E002C005900D92EE
:10007000AE3AB107D9F712E0AEEAB0E001C01D9286
:10008000A930B107E1F70E9425010C94AC020C9451
:1000900000001F920F920FB60F9211242F938F938F
:1000A0009F93EF93FF939BB12CB1E0910602EF5F1A
:1000B00080910702E81711F482E008C0892F887147
:1000C000E0930602F0E0EC5FFE4F2083809308028D
:1000D000FF91EF919F918F912F910F900FBE0F90F5
:1000E0001F9018951F920F920FB60F9211248F93A5
:1000F0009F93EF93FF9390910402809105029817CC
:1001000061F0E0910502EF5FEF71E0930502F0E02E
:10011000EC51FF4F80818CB901C05598FF91EF9150
:100120009F918F910F900FBE0F901F901895109276
:1001300006021092070208959C0110920402109288
:100140000502109206021092070297FF03C082E098
:100150008BB93F7730BD29B988E98AB986E880BD77
:1001600008959091060280910702981719F420E0F3
:1001700031E011C0E0910702EF5FE0930702F0E089
:10018000EC5FFE4F308120910802922F80E0AC019D
:10019000430F511D9A01C90108955D9BFECF8CB993
:1001A00008955D9BFECF8CB90895FC0104C05D9B52
:1001B000FECF31968CB980818823C9F7089503C09A
:1001C0005D9BFECF2CB9FC01019624912223C1F73F
:1001D00008958FE590E00E949C00789480E690E07E
:1001E0000E94D5008FEF84BBD09AD19AD29AD39A2D
:1001F000D59A8A98D89AD998DD980895F89480E489
:100200008BBF81E085BF7894089584E083BF8BE441
:1002100082BF89B7816089BF08951F920F920FB680
:100220000F9211248F939F93A99A8091B20090917D
:10023000B30001969093B3008093B2009F918F9189
:100240000F900FBE0F901F9018950E94E90088E84C
:1002500093E120E731E0F9013197F1F70197D9F700
:10026000F89480E48BBF81E085BF789484E083BFFD
:100270008BE482BF89B7816089BF8091B000909183
:10028000B1000197D1F72091B4003091B500809171
:10029000B6009091B7008217930774F42091B400D0
:1002A0003091B5008091B8009091B9008217930702
:1002B0001CF486E690E034C02091B6003091B7007F
:1002C0008091B4009091B5008217930774F4209147
:1002D000B6003091B7008091B8009091B9008217B4
:1002E00093071CF481E790E01BC02091B800309187
:1002F000B9008091B6009091B7008217930774F40B
:100300002091B8003091B9008091B4009091B5006F
:10031000821793071CF48FE790E002C08CE890E00E
:100320000E94D5001092B1001092B000A6CF1F928B
:100330000F920FB60F9211242F933F934F935F9319
:100340006F937F938F939F93AF93BF93EF93FF939D
:100350008BE482BF8091AE009091AF0001969093A4
:10036000AF008093AE008091AE009091AF006AED37
:1003700070E04AE050E00E9467028091AE009091E8
:10038000AF00019739F41092B3001092B200DA98DE
:10039000DB988CC08091AE009091AF0084369105BF
:1003A000E1F48091B2009091B3009093B5008093F6
:1003B000B40085E990E00E94D5008091B40090914E
:1003C000B5006CEB70E04AE050E00E9467028CEBF5
:1003D00090E00E94D500DA9822C08091AE00909102
:1003E000AF00883C910509F58091B2009091B3006F
:1003F0009093B9008093B8008CE990E00E94D500FA
:100400008091B8009091B90060ED70E04AE050E052
:100410000E94670280ED90E00E94D500DA9ADB9A94
:100420001092B3001092B20041C08091AE00909142
:10043000AF008C529140E9F48091B2009091B300EA
:100440009093B7008093B60084EA90E00E94D500B4
:100450008091B6009091B70066EC70E04AE050E001
:100460000E94670286EC90E00E94D500DA9ADB9841
:10047000D7CF8091AE009091AF0080599140B1F4F8
:1004800081E090E09093B1008093B0008091B20041
:100490009091B3009093BB008093BA001092B30088
:1004A0001092B2001092AF001092AE00FF91EF9147
:1004B000BF91AF919F918F917F916F915F914F917C
:1004C0003F912F910F900FBE0F901F901895FB0139
:1004D0009F01E8944230C4F04532B4F44A3029F424
:1004E00097FB1EF4909581959F4F642F77270E946C
:1004F0009802805D8A330CF0895D8193CB0100976F
:10050000A1F716F45DE251931082C9010C948802A0
:10051000DC01FC01672F71917723E1F7329704C06A
:100520007C916D9370836291AE17BF07C8F30895F5
:10053000AA1BBB1B51E107C0AA1FBB1FA617B70709
:1005400010F0A61BB70B881F991F5A95A9F7809525
:0C0550009095BC01CD010895F894FFCFF8
:10055C007374617274000A0D66696E645F7265640F
:10056C00000A0D2066696E645F677265656E000A2D
:10057C000D2066696E645F626C7565004E4F204697
:10058C00494E4420000A0D7265643D002020626CC7
:0E059C0075653D002020677265656E3D0000AC
:00000001FF
