:100000000C942A000C9412010C9447000C944700A5
:100010000C9447000C9447000C9447000C94470044
:100020000C9447000C9447000C9447000C94D501A5
:100030000C9447000C9449000C9472000C944700F7
:100040000C9447000C9447000C9447000C94470014
:100050000C94470011241FBECFE5D8E0DEBFCDBF12
:1000600010E0A0E6B0E0E6EDF5E002C005900D92EC
:10007000AE3BB107D9F712E0AEEBB0E001C01D9284
:10008000AB31B107E1F70E942A010C94E9020C940C
:1000900000001F920F920FB60F9211242F938F938F
:1000A0009F93EF93FF939BB12CB1E0911802EF5F08
:1000B00080911902E81711F482E008C0892F887135
:1000C000E0931802F0E0EA5EFE4F208380931A026C
:1000D000FF91EF919F918F912F910F900FBE0F90F5
:1000E0001F9018951F920F920FB60F9211248F93A5
:1000F0009F93EF93FF9390911602809117029817A8
:1001000061F0E0911702EF5FEF71E0931702F0E00A
:10011000EA50FF4F80818CB901C05598FF91EF9153
:100120009F918F910F900FBE0F901F901895109276
:1001300018021092190208959C0110921602109252
:100140001702109218021092190297FF03C082E062
:100150008BB93F7730BD29B988E98AB986E880BD77
:1001600008959091180280911902981719F420E0CF
:1001700031E011C0E0911902EF5FE0931902F0E065
:10018000EA5EFE4F308120911A02922F80E0AC018E
:10019000430F511D9A01C90108955D9BFECF8CB993
:1001A00008955D9BFECF8CB90895FC0104C05D9B52
:1001B000FECF31968CB980818823C9F7089503C09A
:1001C0005D9BFECF2CB9FC01019624912223C1F73F
:1001D00008958FE290E00E949C00789480E690E081
:1001E0000E94D5008FEF84BBB89AB99ABA9ABB9A8D
:1001F000BD9A8A98C09AC198C5980895F8948BB70B
:1002000080648BBF81E085BF789486E690E00E9491
:10021000D500089584E083BF8BE482BF89B78160F5
:1002200089BF08951F920F920FB60F9211248F93DA
:100230009F93A99A8091C4009091C50001969093D4
:10024000C5008093C4009F918F910F900FBE0F90B7
:100250001F901895CF93DF930E94E90088E893E1FF
:1002600028EB30E0F9013197F1F70197D9F70E94B7
:10027000FE0084E083BF8BE482BF89B7816089BFC1
:10028000A89AA99AAA9AAB9A80E29EE428EB30E059
:10029000F9013197F1F70197D9F7A898A998AA9889
:1002A000AB98C1E0D0E08091C0009091C10001976F
:1002B00009F06EC08091CA009091CB00845A96409C
:1002C0008CF48091C8009091C900845A964054F4EF
:1002D0008091C6009091C700845A96401CF486E72E
:1002E00090E050C02091C6003091C7008091C800B6
:1002F0009091C90082179307A4F42091C600309111
:10030000C7008091CA009091CB00821793074CF4EC
:100310008FE790E00E94D500D093C300C093C20045
:1003200033C02091C8003091C9008091C6009091DF
:10033000C7008217930774F42091C8003091C90058
:100340008091CA009091CB00821793071CF48AE831
:1003500090E018C02091CA003091CB008091C80075
:100360009091C900821793077CF42091CA003091C4
:10037000CB008091C6009091C7008217930724F4A8
:1003800088E990E00E94D5001092C1001092C00050
:100390008091C2009091C300019709F084CFF89436
:1003A000A89AA99AAA9AAB9A7ECF1F920F920FB6DB
:1003B0000F9211242F933F934F935F936F937F93EB
:1003C0008F939F93AF93BF93EF93FF938BE482BF81
:1003D0008091BE009091BF0001969093BF008093E2
:1003E000BE008091BE009091BF006CEE70E04AE0CC
:1003F00050E00E94A4028091BE009091BF0001973E
:1004000039F41092C5001092C400C298C3988BC0F2
:100410008091BE009091BF004C97E1F48091C400A0
:100420009091C5009093C7008093C60085EA90E044
:100430000E94D5008091C6009091C7006EEC70E0DC
:100440004AE050E00E94A4028EEC90E00E94D500A9
:10045000C29822C08091BE009091BF008034910567
:1004600009F58091C4009091C5009093CB008093D2
:10047000CA008CEA90E00E94D5008091CA00909159
:10048000CB0062EE70E04AE050E00E94A40282EEEF
:1004900090E00E94D500C29AC39A1092C5001092B3
:1004A000C40041C08091BE009091BF008536910587
:1004B000E9F48091C4009091C5009093C9008093A5
:1004C000C80084EB90E00E94D5008091C800909114
:1004D000C90068ED70E04AE050E00E94A40288ED97
:1004E00090E00E94D500C29AC398D7CF8091BE00F9
:1004F0009091BF00883C9105B1F481E090E0909329
:10050000C1008093C0008091C4009091C500909379
:10051000CD008093CC001092C5001092C4001092C0
:10052000BF001092BE00FF91EF91BF91AF919F91DC
:100530008F917F916F915F914F913F912F910F908C
:100540000FBE0F901F901895FB019F01E894423059
:10055000C4F04532B4F44A3029F497FB1EF4909568
:1005600081959F4F642F77270E94D502805D8A3343
:100570000CF0895D8193CB010097A1F716F45DE241
:1005800051931082C9010C94C502DC01FC01672F54
:1005900071917723E1F7329704C07C916D9370835A
:1005A0006291AE17BF07C8F30895AA1BBB1B51E1A8
:1005B00007C0AA1FBB1FA617B70710F0A61BB70BD3
:1005C000881F991F5A95A9F780959095BC01CD0178
:0605D0000895F894FFCF2E
:1005D6007374617274000A206578742E20696E74D3
:1005E6005F696E6974004E4F2046494E4420000AEA
:1005F6000D66696E645F726564000A0D2066696E39
:10060600645F677265656E000A0D2066696E645FD9
:10061600626C7565000A0D7265643D002020626C8F
:0E06260075653D002020677265656E3D000021
:00000001FF
