:100000000C942A000C9414010C9447000C944700A3
:100010000C9447000C9447000C9447000C94470044
:100020000C9440010C9447000C9447000C94490038
:100030000C9472000C9447000C9447000C944700F9
:100040000C9447000C9447000C9447000C94470014
:100050000C94470011241FBECFE5D4E0DEBFCDBF16
:1000600010E0A0E6B0E0E4E2F7E002C005900D92F7
:10007000AE37B107D9F711E0AEE7B0E001C01D928D
:10008000AD3CB107E1F70E943B010C9490030C9446
:1000900000001F920F920FB60F9211242F938F938F
:1000A0009F93EF93FF939BB12CB1E091A601EF5F7B
:1000B0008091A701E81711F482E008C0892F8871A8
:1000C000E093A601F0E0EC55FF4F20838093A80158
:1000D000FF91EF919F918F912F910F900FBE0F90F5
:1000E0001F9018951F920F920FB60F9211248F93A5
:1000F0009F93EF93FF939091A4018091A50198178E
:1001000061F0E091A501EF5FEF71E093A501F0E0F0
:10011000EC57FF4F80818CB901C05598FF91EF914A
:100120009F918F910F900FBE0F901F901895109276
:10013000A6011092A70108959C011092A4011092AB
:10014000A5011092A6011092A70197FF03C082E0BB
:100150008BB93F7730BD29B988E98AB986E880BD77
:1001600008959091A6018091A701981719F420E0B5
:1001700031E011C0E091A701EF5FE093A701F0E04B
:10018000EC55FF4F30812091A801922F80E0AC0107
:10019000430F511D9A01C90108955D9BFECF8CB993
:1001A00008955D9BFECF8CB90895FC0104C05D9B52
:1001B000FECF31968CB980818823C9F7089503C09A
:1001C0005D9BFECF2CB9FC01019624912223C1F73F
:1001D00008958FE590E00E949C00789480E690E07E
:1001E0000E94D5008FEF8ABBDD987894089580E453
:1001F0008BBF8A9881E085BF789408951FBC84E006
:100200008EBD87E88CBD8FEF8DBD89B7846089BFB7
:100210000895D89AD99880E48BBF8A9881E085BFE9
:1002200078940E94FE0008951F920F920FB60F92CD
:1002300011248F939F93809180009091810001966B
:1002400090938100809380009F918F910F900FBEBB
:100250000F901F90189580E090E90197F1F70E94A8
:10026000090188E893E120E731E0F9013197F1F7DE
:100270000197D9F708950E94E9000E942B01FDCF54
:100280001F920F920FB60F9211242F933F934F930B
:100290005F936F937F938F939F93AF93BF93EF93EE
:1002A000FF93A89A87E88CBD8FEF8DBD80917E006B
:1002B00090917F00019690937F0080937E008091C3
:1002C0007E0090917F00019729F410928100109296
:1002D0008000A1C080917E0090917F00029761F51F
:1002E000DA98DB986091800070918100882777FD13
:1002F0008095982F0E94BF022BE237E846E85FE323
:100300000E9424020E948C027093AC016093AB01A6
:1003100088E690E00E94D5008091AB019091AC01FD
:1003200069EB71E04AE050E00E944B0389EB91E0F9
:100330000E94D500DA9A33C080917E0090917F00B0
:10034000039779F56091800070918100882777FD8F
:100350008095982F0E94BF0225E732E042E85FE3D4
:100360000E9424020E948C027093AA016093A9014A
:100370008DE690E00E94D5008091A9019091AA019C
:100380006FEA71E04AE050E00E944B038FEA91E08F
:100390000E94D50084E790E00E94D500DA98DB9AAD
:1003A0003AC080917E0090917F00049779F560912A
:1003B000800070918100882777FD8095982F0E949A
:1003C000BF022DE837E94EE85FE30E9424020E9455
:1003D0008C027093AE016093AD0187E790E00E94BC
:1003E000D5008091AD019091AE0163EC71E04AE0DF
:1003F00050E00E944B0383EC91E00E94D50084E71B
:1004000090E00E94D500DA98DB9805C010927F003A
:1004100010927E0019BE10928100109280008CEC28
:100420009CE10197F1F7FF91EF91BF91AF919F91FF
:100430008F917F916F915F914F913F912F910F908D
:100440000FBE0F901F9018950CD0EBC0E3D040F07A
:10045000DAD030F021F45F3F19F0CCC0511115C152
:10046000CFC0F0D098F39923C9F35523B1F3951B6E
:10047000550BBB27AA2762177307840738F09F5FC5
:100480005F4F220F331F441FAA1FA9F333D00E2E34
:100490003AF0E0E830D091505040E695001CCAF7A1
:1004A00029D0FE2F27D0660F771F881FBB1F261766
:1004B00037074807AB07B0E809F0BB0B802DBF0139
:1004C000FF2793585F4F2AF09E3F510568F092C076
:1004D000DCC05F3FECF3983EDCF38695779567953B
:1004E000B795F7959F5FC9F7880F911D96958795EA
:1004F00097F90895E1E0660F771F881FBB1F621709
:1005000073078407BA0720F0621B730B840BBA0BC6
:10051000EE1F88F7E095089504D06894B111B5C036
:10052000089598D088F09F5790F0B92F9927B75128
:10053000A0F0D1F0660F771F881F991F1AF0BA95A7
:10054000C9F712C0B13081F09FD0B1E008959CC0CE
:10055000672F782F8827B85F39F0B93FCCF386959D
:1005600077956795B395D9F73EF4909580957095FA
:1005700061957F4F8F4F9F4F0895E89409C097FB77
:100580003EF490958095709561957F4F8F4F9F4F6A
:100590009923A9F0F92F96E9BB279395F6958795AE
:1005A00077956795B795F111F8CFFAF4BB0F11F471
:1005B00060FF1BC06F5F7F4F8F4F9F4F16C0882318
:1005C00011F096E911C0772321F09EE8872F762F4E
:1005D00005C0662371F096E8862F70E060E02AF08F
:1005E0009A95660F771F881FDAF7880F969587957B
:1005F00097F9089597F99F6780E870E060E00895A3
:100600009FEF80EC089500240A941616170618062A
:100610000906089500240A94121613061406050606
:100620000895092E0394000C11F4882352F0BB0F97
:1006300040F4BF2B11F460FF04C06F5F7F4F8F4FFA
:100640009F4F089557FD9058440F551F59F05F3F35
:1006500071F04795880F97FB991F61F09F3F79F0E4
:1006600087950895121613061406551FF2CF469566
:10067000F1DF08C0161617061806991FF1CF8695E8
:100680007105610508940895E894BB2766277727CC
:10069000CB0197F90895FB019F01E8944230C4F023
:1006A0004532B4F44A3029F497FB1EF490958195B5
:1006B0009F4F642F77270E947C03805D8A330CF064
:1006C000895D8193CB010097A1F716F45DE2519308
:1006D0001082C9010C946C03DC01FC01672F71913D
:1006E0007723E1F7329704C07C916D937083629118
:1006F000AE17BF07C8F30895AA1BBB1B51E107C083
:10070000AA1FBB1FA617B70710F0A61BB70B881FA1
:10071000991F5A95A9F780959095BC01CD01089530
:04072000F894FFCF7B
:1007240077656C636F6D65007265643D0067726523
:0E073400656E3D000A0D00626C75653D0000AB
:00000001FF
